S00F00006D656D6F7269612E737265632B
S11300000C9434000C9451000C9451000C94510045
S11300100C9451000C9451000C9451000C94510018
S11300200C9451000C9451000C9451000C94510008
S11300300C9451000C9451000C9451000C945100F8
S11300400C9451000C9451000C9451000C945100E8
S11300500C9451000C9451000C9451000C945100D8
S11300600C9451000C94510011241FBECFEFD8E022
S1130070DEBFCDBF21E0A4E0B1E001C01D92A530F8
S1130080B207E1F711E0A0E0B1E0E8EDF3E002C06F
S113009005900D92A430B107D9F70E94C9000C94C1
S11300A0EA010C9400009C015A9A9AE05B9831FF93
S11300B002C05C9A01C05C985B9A220F331F915076
S11300C0A9F75B985C98089598E05B98882314F4EA
S11300D05C9A01C05C985B9A880F9150B1F75B9869
S11300E05C98089527E030E080E061E070E05B9880
S11300F05B9A4D9B08C0AB01022E02C0440F551FF2
S11301000A94E2F7842B2150310988F75B985A98B6
S11301100895CF93C82F8F7790E097600E94530083
S11301208C2F0E947200CF910895CF93C62F90E038
S1130130806892600E9453008C2F0E9464005A9839
S11301405A9A89B18823E9F35A98CF91089580E6A1
S113015092E00E9453005A98089580E092E00E9431
S113016053005A98089522E02093C00028ED20936C
S1130170C10026E02093C2009093C5008093C40080
S11301800895E0ECF0E0908195FFFDCF8093C600E8
S113019008958CE090E00E94B3008AB18C618AB922
S11301A055985B98569A81E30E94C10082E30E94AD
S11301B0C100C5E1D0E00E94A7000E947701BE0102
S11301C00E9403016AE0680F809104010E94950077
S11301D00E94AD0088E40E94C10089E40E94C1002D
S11301E02FE382E49FE0215080409040E1F700C07B
S11301F00000809104010E948900809104018F5FB6
S113020080930401D8CF97FB072E16F4009407D0EF
S113021077FD09D00E94170107FC05D03EF49095A4
S113022081959F4F0895709561957F4F0895AA1BFE
S1130230BB1B51E107C0AA1FBB1FA617B70710F0CD
S1130240A61BB70B881F991F5A95A9F780959095FF
S1130250BC01CD0108958F929F92AF92BF92CF922D
S1130260DF92EF92FF92CF93DF93EC016881798163
S11302708A819B81611571058105910521F464E2F0
S113028079ED8BE597E02DE133EF41E050E00E94FA
S1130290870149015A019B01AC01A7EAB1E40E941C
S11302A0A6016B017C01ACEEB4EFA50194010E94A0
S11302B0B401DC01CB018C0D9D1DAE1DBF1DB7FF2C
S11302C003C00197A109B04888839983AA83BB839B
S11302D09F77DF91CF91FF90EF90DF90CF90BF9009
S11302E0AF909F908F9008950E942B01089580E015
S11302F091E00E942B010895A0E0B0E080930001FA
S113030090930101A0930201B09303010895052E77
S113031097FB1EF400940E949E0157FD07D00E9493
S1130320B90107FC03D04EF40C949E0150954095FE
S1130330309521953F4F4F4F5F4F0895909580958D
S1130340709561957F4F8F4F9F4F08950E94DB01F9
S1130350A59F900DB49F900DA49F800D911D112415
S11303600895B7FF0C94A6010E94A601821B930B6B
S11303700895A1E21A2EAA1BBB1BFD010DC0AA1FE2
S1130380BB1FEE1FFF1FA217B307E407F50720F0FA
S1130390A21BB30BE40BF50B661F771F881F991F75
S11303A01A9469F760957095809590959B01AC01BE
S11303B0BD01CF010895A29FB001B39FC001A39FC7
S11303C0700D811D1124911DB29F700D811D11248A
S10B03D0911D0895F894FFCF7C
S10703D8010000001C
S9030000FC
