S00F00006D656D6F7269612E737265632B
S11300000C9434000C9451000C9451000C94510045
S11300100C9451000C9451000C9451000C94510018
S11300200C9451000C9451000C9451000C94CC008D
S11300300C9451000C9451000C9451000C945100F8
S11300400C9451000C9451000C9451000C945100E8
S11300500C9451000C9451000C9451000C945100D8
S11300600C9451000C94510011241FBECFEFD8E022
S1130070DEBFCDBF21E0A4E0B1E001C01D92A630F7
S1130080B207E1F711E0A0E0B1E0E2E2F5E002C07E
S113009005900D92A430B107D9F70E946E010C941B
S11300A08F020C94000084EE8093BC00ECEBF0E033
S11300B080818823ECF78091B900089584EE8093C1
S11300C0BC00ECEBF0E080818823ECF78091B90070
S11300D00895880F8093BB0084E88093BC00ECEB08
S11300E0F0E080818823ECF78091B900887F883123
S11300F061F46093BB0084E88093BC00ECEBF0E017
S113010080818823ECF78091B9000895880F81607D
S11301108093BB0084E88093BC00ECEBF0E080812A
S11301208823ECF78091B900887F803499F420E427
S1130130629FC001112484688093BC00ECEBF0E062
S113014080818823ECF7613019F48091B90002C0F2
S11301508091B9008091BB0090E00895CF930E94F4
S113016053006EEE88E40E9469000E945E006AEA11
S113017088E40E9469000E945E0060E088E40E94B6
S11301808600C82F60E088E40E94860084E980939A
S1130190BC008C2FCF9108951F920F920FB60F922F
S11301A011242F933F934F935F936F937F938F9378
S11301B09F93AF93BF93EF93FF939BB180E4892701
S11301C08BB90E94AE0081E080930401FF91EF910E
S11301D0BF91AF919F918F917F916F915F914F915B
S11301E03F912F910F900FBE0F901F9018959C0177
S11301F05A9A9AE05B9831FF02C05C9A01C05C98FD
S11302005B9A220F331F9150A9F75B985C9808956D
S113021098E05B98882314F45C9A01C05C985B9A1C
S1130220880F9150B1F75B985C98089527E030E00F
S113023080E061E070E05B985B9A4D9B08C0AB0185
S1130240022E02C0440F551F0A94E2F7842B21505A
S1130250310988F75B985A980895CF93C82F8F7304
S113026090E097600E94F7008C2F0E941601CF91B6
S11302700895CF93C62F8F7390E0806892600E9498
S1130280F7008C2F0E9408015A985A9A89B1882342
S1130290E9F35A98CF91089580E692E00E94F7001E
S11302A05A98089580E092E00E94F7005A980895C1
S11302B022E02093C00028ED2093C10026E0209383
S11302C0C2009093C5008093C4000895E0ECF0E070
S11302D0908195FFFDCF8093C60008958CE090E057
S11302E00E9458018AB18C618AB955985B98569AD4
S11302F088E40E94660181E30E946601C5E1D0E0C2
S11303000E944C010E941C02BE010E94A8016AE0E6
S1130310680F809105010E9439010E94520188E40E
S11303200E94660189E40E9466012FE382E49FE053
S1130330215080409040E1F700C000008091050109
S11303400E942D01809105018F5F80930501D8CF14
S113035097FB072E16F4009407D077FD09D00E946E
S1130360BC0107FC05D03EF4909581959F4F0895FC
S1130370709561957F4F0895AA1BBB1B51E107C07F
S1130380AA1FBB1FA617B70710F0A61BB70B881F21
S1130390991F5A95A9F780959095BC01CD010895B0
S11303A08F929F92AF92BF92CF92DF92EF92FF9281
S11303B0CF93DF93EC01688179818A819B816115F8
S11303C071058105910521F464E279ED8BE597E0EF
S11303D02DE133EF41E050E00E942C0249015A0123
S11303E09B01AC01A7EAB1E40E944B026B017C01C2
S11303F0ACEEB4EFA50194010E945902DC01CB01DB
S11304008C0D9D1DAE1DBF1DB7FF03C00197A10933
S1130410B04888839983AA83BB839F77DF91CF9168
S1130420FF90EF90DF90CF90BF90AF909F908F9010
S113043008950E94D001089580E091E00E94D001C7
S11304400895A0E0B0E08093000190930101A0938F
S11304500201B09303010895052E97FB1EF4009446
S11304600E94430257FD07D00E945E0207FC03D09E
S11304704EF40C94430250954095309521953F4F8E
S11304804F4F5F4F089590958095709561957F4F7C
S11304908F4F9F4F08950E948002A59F900DB49F97
S11304A0900DA49F800D911D11240895B7FF0C9405
S11304B04B020E944B02821B930B0895A1E21A2E59
S11304C0AA1BBB1BFD010DC0AA1FBB1FEE1FFF1FF4
S11304D0A217B307E407F50720F0A21BB30BE40B44
S11304E0F50B661F771F881F991F1A9469F760958B
S11304F07095809590959B01AC01BD01CF01089545
S1130500A29FB001B39FC001A39F700D811D112450
S1130510911DB29F700D811D1124911D0895F894B1
S1050520FFCF07
S107052201000000D0
S9030000FC
