:100000000C9434000C9461030C9451000C94510036
:100010000C9451000C9451000C9451000C9451001C
:100020000C9451000C9451000C9451000C94460215
:100030000C9451000C9451000C9451000C945100FC
:100040000C9451000C9451000C9451000C945100EC
:100050000C9451000C9451000C9451000C945100DC
:100060000C947E000C94510011241FBECFEFD8E0F9
:10007000DEBFCDBF11E0A0E0B1E0E6ECFBE002C0E6
:1000800005900D92A430B107D9F721E0A4E0B1E0CA
:1000900001C01D92AB37B207E1F70E949C030C949C
:1000A000E1050C94000016161706A4F44091000117
:1000B000FC01680F791F80E0219198E0382F3227EA
:1000C000869530FD842726959150C1F7E617F707EE
:1000D00099F7089580E008959093070180930601B1
:1000E00070930501609304010895F894880F80933C
:1000F000BA0085EC8093BC00789408951F920F920B
:100100000FB60F9211242F933F934F935F936F93EA
:100110007F938F939F93AF93BF93EF93FF938091C0
:10012000B900887F803849F018F4882319F128C075
:10013000883A71F0883BA9F023C08091BB00E09120
:100140000601F0910701099585EC8093BC001BC066
:10015000E0910401F0910501099585EC8093BC00C4
:1001600012C0E0910401F0910501099585EC80939E
:10017000BC0009C0ECEBF0E0108285EC808303C08A
:1001800085EC8093BC00FF91EF91BF91AF919F915F
:100190008F917F916F915F914F913F912F910F9030
:1001A0000FBE0F901F90189580937301089581E002
:1001B000809369008DBB08959C015E9A9AE05B98DC
:1001C00031FF02C05C9A01C05C985B9A8BB1220F30
:1001D000331F9150A1F75B985C98089598E05B9865
:1001E000882314F45C9A01C05C985B9A2BB1880F49
:1001F0009150A9F75B985C98089527E030E080E083
:1002000061E070E05B985B9A9BB14D9B08C0AB01CD
:10021000022E02C0440F551F0A94E2F7842B21508E
:10022000310980F75B985E980895CF93C82F8F7738
:1002300090E097600E94DC008C2F0E94FD00CF911F
:100240000895CF93809173018C3139F5C0910201EB
:10025000C730B8F483E68C0F0E941501EC2FF0E054
:10026000EC58FE4F8083E0910201F0E0EC58FE4F25
:1002700080818093BB00809102018F5F8093020197
:1002800034C066E070E085E791E00E9453008093FF
:10029000BB0081E08093020128C0809173018B3103
:1002A00021F5C0910F01C336B0F48C2F0E941501C7
:1002B000EC2FF0E0E05FFE4F8083E0910F01F0E073
:1002C000E05FFE4F80818093BB0080910F018F5FC4
:1002D00080930F010AC063E670E080E191E00E9424
:1002E00053008093BB0010920F01CF910895CF93DC
:1002F000C62F90E0806892600E94DC008C2F0E94E4
:10030000EE005E985E9A4D9BFECF5E98CF91089569
:1003100080E692E00E94DC005E98089580E092E022
:100320000E94DC005E980895109280008DE080931A
:100330008100EFE6F0E080818260808383E193E1D9
:1003400090938900809388000895ECEBF0E0808121
:100350008E7B80838081846080831092B9008CE0E2
:100360008093B800089584EE8093BC00ECEBF0E03D
:1003700080818823ECF78091B900089584EE809302
:10038000BC00ECEBF0E080818823ECF78091B900B1
:100390000895880F8093BB0084E88093BC00ECEB49
:1003A000F0E080818823ECF78091B900887F883164
:1003B00061F46093BB0084E88093BC00ECEBF0E058
:1003C00080818823ECF78091B9000895880F8160BF
:1003D0008093BB0084E88093BC00ECEBF0E080816C
:1003E0008823ECF78091B900887F803499F420E469
:1003F000629FC001112484688093BC00ECEBF0E0A4
:1004000080818823ECF7613019F48091B90002C033
:100410008091B9008091BB0090E008958093BB006B
:1004200084E88093BC00ECEBF0E080818823ECF75B
:100430008091B90008950E94B3016CEA88E40E949B
:10044000C90183E00E940E0284E98093BC000895F4
:10045000CF930E94B3016EEE88E40E94C9010E940E
:10046000BE016AEA88E40E94C9010E94BE0160E000
:1004700088E40E94E601C82F60E088E40E94E6015B
:1004800084E98093BC008C2FCF9108951F920F9226
:100490000FB60F9211248F929F92AF92BF92CF927C
:1004A000DF92EF92FF921F932F933F934F935F93AF
:1004B0006F937F938F939F93AF93BF93CF93DF936C
:1004C000EF93FF9381E080930D010E942802C82FD3
:1004D00083E60E941501D82F10910E01682F70E05D
:1004E00080E090E00E94E60420E030E048EC52E436
:1004F0000E9474056B017C01612F70E080E090E048
:100500000E94E6049B01AC01C701B6010E94D90319
:100510006B017C01D11111C011110FC06C2F70E063
:1005200080E090E00E94E604609308017093090166
:1005300080930A0190930B0132C020910801309101
:10054000090140910A0150910B01C701B6010E94B7
:1005500074054B015C016C2F70E080E090E00E941C
:10056000E6049B01AC01C501B4010E94D9034B0113
:100570005C0120E030E040E85FE3C701B6010E9483
:10058000D9039B01AC01C501B4010E9445046093ED
:1005900008017093090180930A0190930B01C090A8
:1005A0000801D0900901E0900A01F0900B01C70109
:1005B000B6010E94B704162F70E080E090E00E9420
:1005C000E6049B01AC01C701B6010E94D80320E0FC
:1005D00030E048EC52E40E9474050E94B704F62E05
:1005E0000E94880180910C018C1750F46C2F84E6D6
:1005F0000E9477016AE085E60E947701C0930C01B2
:1006000080910101C81750F46C2F86E60E94770193
:1006100060EA87E60E947701C0930101612F88E6B6
:100620000E9477016F2D89E60E9477016C2F8091DF
:100630000E010E94770180910E018F5F833618F4BE
:1006400080930E0107C010920E0161E06D0F83E6EA
:100650000E9477010E948E0180910E01882319F07B
:1006600081500E94150184E60E94150185E60E94D2
:10067000150186E60E94150187E60E94150188E6AD
:100680000E94150189E60E941501FF91EF91DF910B
:10069000CF91BF91AF919F918F917F916F915F911A
:1006A0004F913F912F911F91FF90EF90DF90CF904E
:1006B000BF90AF909F908F900F900FBE0F901F90A4
:1006C00018951F920F920FB60F9211242F933F93FC
:1006D0004F935F936F937F938F939F93AF93BF934A
:1006E000EF93FF934A9B10C05F9A61E271E084ED43
:1006F00090E00E946C0080E20E947500EFE6F0E05E
:1007000080818D7F808307C00E94A501EFE6F0E025
:10071000808182608083FF91EF91BF91AF919F9123
:100720008F917F916F915F914F913F912F910F909A
:100730000FBE0F901F9018950E94A5010E941B02EA
:100740000E94D7008AB188658AB95598579A5B98F4
:10075000569A78940E9494010E94880160E083E692
:100760000E94770160E084E60E94770160E085E600
:100770000E94770160E086E60E94770160E087E6EC
:100780000E94770160E088E60E94770160E089E6D8
:100790000E94770160E08AE60E9477010E948E0144
:1007A00080910D0190E001C0892F8130F1F7FCCFDD
:1007B0005058BB27AA270E94F0030C943A050E94C8
:1007C0002C0538F00E94330520F039F49F3F19F4CE
:1007D00026F40C9429050EF4E095E7FB0C94230510
:1007E000E92F0E944B0558F3BA1762077307840775
:1007F000950720F079F4A6F50C946D050EF4E095BC
:100800000B2EBA2FA02D0B01B90190010C01CA01CA
:10081000A0011124FF27591B99F0593F50F4503E75
:1008200068F11A16F040A22F232F342F4427585F67
:10083000F3CF469537952795A795F0405395C9F77F
:100840007EF41F16BA0B620B730B840BBAF0915037
:10085000A1F0FF0FBB1F661F771F881FC2F70EC0D6
:10086000BA0F621F731F841F48F4879577956795A9
:10087000B795F7959E3F08F0B0CF9395880F08F095
:100880009927EE0F9795879508950E9459040C9427
:100890003A050E94330558F00E942C0540F029F4D7
:1008A0005F3F29F00C94230551110C946E050C94B4
:1008B00029050E944B0568F39923B1F3552391F361
:1008C000951B550BBB27AA2762177307840738F0BF
:1008D0009F5F5F4F220F331F441FAA1FA9F335D01C
:1008E0000E2E3AF0E0E832D091505040E695001CD0
:1008F000CAF72BD0FE2F29D0660F771F881FBB1F8A
:10090000261737074807AB07B0E809F0BB0B802D67
:10091000BF01FF2793585F4F3AF09E3F510578F093
:100920000C9423050C946E055F3FE4F3983ED4F3DA
:10093000869577956795B795F7959F5FC9F7880F67
:10094000911D9695879597F90895E1E0660F771FB9
:10095000881FBB1F621773078407BA0720F0621B4A
:10096000730B840BBA0BEE1F88F7E09508950E9475
:10097000530588F09F5798F0B92F9927B751B0F0D9
:10098000E1F0660F771F881F991F1AF0BA95C9F713
:1009900014C0B13091F00E946D05B1E008950C943F
:1009A0006D05672F782F8827B85F39F0B93FCCF3F2
:1009B000869577956795B395D9F73EF49095809590
:1009C000709561957F4F8F4F9F4F0895E89409C0B0
:1009D00097FB3EF490958095709561957F4F8F4F72
:1009E0009F4F9923A9F0F92F96E9BB279395F69588
:1009F000879577956795B795F111F8CFFAF4BB0F06
:100A000011F460FF1BC06F5F7F4F8F4F9F4F16C069
:100A1000882311F096E911C0772321F09EE8872FF3
:100A2000762F05C0662371F096E8862F70E060E0AF
:100A30002AF09A95660F771F881FDAF7880F969528
:100A4000879597F9089597F99F6780E870E060E0CF
:100A500008959FEF80EC089500240A941616170657
:100A600018060906089500240A941216130614069F
:100A700005060895092E0394000C11F4882352F002
:100A8000BB0F40F4BF2B11F460FF04C06F5F7F4FBA
:100A90008F4F9F4F089557FD9058440F551F59F0A1
:100AA0005F3F71F04795880F97FB991F61F09F3F5B
:100AB00079F087950895121613061406551FF2CF84
:100AC0004695F1DF08C0161617061806991FF1CFD4
:100AD00086957105610508940895E894BB276627FB
:100AE0007727CB0197F908950E9487050C943A0562
:100AF0000E942C0538F00E94330520F0952311F058
:100B00000C9423050C94290511240C946E050E9465
:100B10004B0570F3959FC1F3950F50E0551F629FF1
:100B2000F001729FBB27F00DB11D639FAA27F00D46
:100B3000B11DAA1F649F6627B00DA11D661F829F6D
:100B40002227B00DA11D621F739FB00DA11D621F52
:100B5000839FA00D611D221F749F3327A00D611D6F
:100B6000231F849F600D211D822F762F6A2F112451
:100B70009F5750409AF0F1F088234AF0EE0FFF1F84
:100B8000BB1F661F771F881F91505040A9F79E3FDB
:100B9000510580F00C9423050C946E055F3FE4F33F
:100BA000983ED4F3869577956795B795F795E79531
:100BB0009F5FC1F7FE2B880F911D9695879597F93A
:060BC0000895F894FFCF38
:040BC6008CFF01009F
:00000001FF
