:100000000C9434000C94CC020C9451000C945100CC
:100010000C9451000C9451000C9451000C9451001C
:100020000C9451000C9451000C9451000C94C0019C
:100030000C9451000C9451000C9451000C945100FC
:100040000C9451000C9451000C9451000C945100EC
:100050000C9451000C9451000C9451000C945100DC
:100060000C9453000C94510011241FBECFEFD8E024
:10007000DEBFCDBF11E0A0E0B1E0E8E7FAE002C0EA
:1000800005900D92A230B107D9F721E0A2E0B1E0CE
:1000900001C01D92AD30B207E1F70E94F6020C9448
:1000A0003A050C9400001F920F920FB60F92112484
:1000B0002F933F934F935F936F937F938F939F9370
:1000C000AF93BF93EF93FF938091B900887F8038FF
:1000D00049F018F4882319F128C0883A71F0883B58
:1000E000A9F023C08091BB00E0910401F0910501CB
:1000F000099585EC8093BC001BC0E0910201F09152
:100100000301099585EC8093BC0012C0E0910201C7
:10011000F0910301099585EC8093BC0009C0ECEBDC
:10012000F0E0108285EC808303C085EC8093BC00F6
:10013000FF91EF91BF91AF919F918F917F916F91BF
:100140005F914F913F912F910F900FBE0F901F9095
:10015000189581E0809369008DBB08959C015E9A9B
:100160009AE05B9831FF02C05C9A01C05C985B9A90
:10017000220F331F9150A9F75B985C98089598E07F
:100180005B98882314F45C9A01C05C985B9A880F92
:100190009150B1F75B985C98089527E030E080E0DB
:1001A00061E070E05B985B9A4D9B08C0AB01022E4A
:1001B00002C0440F551F0A94E2F7842B21503109E5
:1001C00088F75B985E980895CF93C82F8F7790E05B
:1001D00097600E94AE008C2F0E94CD00CF910895B1
:1001E000CF93C62F90E0806892600E94AE008C2F63
:1001F0000E94BF005E985E9A89B18823E9F35E98F9
:10020000CF91089580E692E00E94AE005E98089536
:1002100080E092E00E94AE005E9808951092800007
:100220008DE080938100EFE6F0E080818260808342
:1002300083E193E190938900809388000895ECEB2B
:10024000F0E080818E7B8083808184608083109247
:10025000B9008CE08093B800089584EE8093BC00D0
:10026000ECEBF0E080818823ECF78091B9000895F1
:1002700084EE8093BC00ECEBF0E080818823ECF707
:100280008091B9000895880F8093BB0084E8809323
:10029000BC00ECEBF0E080818823ECF78091B900A2
:1002A000887F883161F46093BB0084E88093BC0050
:1002B000ECEBF0E080818823ECF78091B9000895A1
:1002C000880F81608093BB0084E88093BC00ECEBD6
:1002D000F0E080818823ECF78091B900887F80343A
:1002E00099F420E4629FC001112484688093BC00CB
:1002F000ECEBF0E080818823ECF7613019F4809119
:10030000B90002C08091B9008091BB0090E00895CF
:100310008093BB0084E88093BC00ECEBF0E080812C
:100320008823ECF78091B90008950E942D016CEAB2
:1003300088E40E94430183E00E94880184E980935D
:10034000BC000895CF930E942D016EEE88E40E94B8
:1003500043010E9438016AEA88E40E9443010E9436
:10036000380160E088E40E946001C82F60E088E402
:100370000E94600184E98093BC008C2FCF91089586
:100380001F920F920FB60F9211248F929F92AF92ED
:10039000BF92CF92DF92EF92FF921F932F933F93E2
:1003A0004F935F936F937F938F939F93AF93BF937D
:1003B000CF93DF93EF93FF9381E080930B019BB189
:1003C00080E489278BB90E94A201C82F83E60E948E
:1003D000E400D82F10910C01682F70E080E090E0CD
:1003E0000E943F0420E030E048EC52E40E94CD043B
:1003F0006B017C01612F70E080E090E00E943F047F
:100400009B01AC01C701B6010E9432036B017C0164
:10041000D11111C011110FC06C2F70E080E090E07D
:100420000E943F04609306017093070180930801C6
:100430009093090132C0209106013091070140914B
:10044000080150910901C701B6010E94CD044B017A
:100450005C016C2F70E080E090E00E943F049B0103
:10046000AC01C501B4010E9432034B015C0120E0E4
:1004700030E040E85FE3C701B6010E9432039B0110
:10048000AC01C501B4010E949E0360930601709304
:1004900007018093080190930901809006019090D4
:1004A0000701A0900801B0900901C501B4010E94A4
:1004B0001004162F70E080E090E00E943F049B0142
:1004C000AC01C501B4010E94310320E030E048ECEA
:1004D00052E40E94CD040E941004B62E0E94020134
:1004E00080910A018C1768F46C2F84E60E94F0005A
:1004F000C701B6010E94100485E60E94F000C09377
:100500000A0180910001C81768F46C2F86E60E94EA
:10051000F000C701B6010E94100487E60E94F000B7
:10052000C0930001612F88E60E94F0006B2D89E6E0
:100530000E94F0006C2F80910C010E94F0008091CD
:100540000C018F5F833618F480930C0107C0109262
:100550000C0161E06D0F83E60E94F0000E9408012B
:10056000FF91EF91DF91CF91BF91AF919F918F91CB
:100570007F916F915F914F913F912F911F91FF90CC
:10058000EF90DF90CF90BF90AF909F908F900F90A3
:100590000FBE0F901F9018951F920F920FB60F92DB
:1005A00011242F933F934F935F936F937F938F9378
:1005B0009F93AF93BF93EF93FF9389B10E941F0165
:1005C000EFE6F0E0808182608083FF91EF91BF9140
:1005D000AF919F918F917F916F915F914F913F91DB
:1005E0002F910F900FBE0F901F9018950E941F0122
:1005F0000E9495010E94A9008AB188658AB9559820
:100600005B98569A78940E940E010E94020160E065
:1006100083E60E94F00060E084E60E94F00060E063
:1006200085E60E94F00060E086E60E94F00060E04F
:1006300087E60E94F00060E088E60E94F00060E03B
:1006400089E60E94F00060E08AE60E94F0000E94C5
:10065000080180910B0190E001C0892F8130F1F7F2
:10066000FCCF5058BB27AA270E9449030C9493043F
:100670000E94850438F00E948C0420F039F49F3FDA
:1006800019F426F40C9482040EF4E095E7FB0C9424
:100690007C04E92F0E94A40458F3BA176207730779
:1006A0008407950720F079F4A6F50C94C6040EF49F
:1006B000E0950B2EBA2FA02D0B01B90190010C0172
:1006C000CA01A0011124FF27591B99F0593F50F48A
:1006D000503E68F11A16F040A22F232F342F4427E2
:1006E000585FF3CF469537952795A795F0405395DA
:1006F000C9F77EF41F16BA0B620B730B840BBAF0AA
:100700009150A1F0FF0FBB1F661F771F881FC2F714
:100710000EC0BA0F621F731F841F48F48795779528
:100720006795B795F7959E3F08F0B0CF9395880FE2
:1007300008F09927EE0F9795879508950E94B203C8
:100740000C9493040E948C0458F00E94850440F09D
:1007500029F45F3F29F00C947C0451110C94C704D8
:100760000C9482040E94A40468F39923B1F35523E6
:1007700091F3951B550BBB27AA27621773078407B4
:1007800038F09F5F5F4F220F331F441FAA1FA9F34A
:1007900035D00E2E3AF0E0E832D091505040E69538
:1007A000001CCAF72BD0FE2F29D0660F771F881F99
:1007B000BB1F261737074807AB07B0E809F0BB0B8C
:1007C000802DBF01FF2793585F4F3AF09E3F5105A0
:1007D00078F00C947C040C94C7045F3FE4F3983EDB
:1007E000D4F3869577956795B795F7959F5FC9F789
:1007F000880F911D9695879597F90895E1E0660F0A
:10080000771F881FBB1F621773078407BA0720F082
:10081000621B730B840BBA0BEE1F88F7E0950895EB
:100820000E94AC0488F09F5798F0B92F9927B751D0
:10083000B0F0E1F0660F771F881F991F1AF0BA9584
:10084000C9F714C0B13091F00E94C604B1E0089518
:100850000C94C604672F782F8827B85F39F0B93F0A
:10086000CCF3869577956795B395D9F73EF4909537
:100870008095709561957F4F8F4F9F4F0895E894B5
:1008800009C097FB3EF490958095709561957F4FD8
:100890008F4F9F4F9923A9F0F92F96E9BB27939586
:1008A000F695879577956795B795F111F8CFFAF496
:1008B000BB0F11F460FF1BC06F5F7F4F8F4F9F4FC7
:1008C00016C0882311F096E911C0772321F09EE825
:1008D000872F762F05C0662371F096E8862F70E08B
:1008E00060E02AF09A95660F771F881FDAF7880F65
:1008F0009695879597F9089597F99F6780E870E036
:1009000060E008959FEF80EC089500240A94161685
:10091000170618060906089500240A9412161306ED
:10092000140605060895092E0394000C11F488237B
:1009300052F0BB0F40F4BF2B11F460FF04C06F5F97
:100940007F4F8F4F9F4F089557FD9058440F551F6D
:1009500059F05F3F71F04795880F97FB991F61F041
:100960009F3F79F087950895121613061406551FB8
:10097000F2CF4695F1DF08C0161617061806991F24
:10098000F1CF86957105610508940895E894BB2719
:1009900066277727CB0197F908950E94E0040C940D
:1009A00093040E94850438F00E948C0420F0952363
:1009B00011F00C947C040C94820411240C94C70450
:1009C0000E94A40470F3959FC1F3950F50E0551F4A
:1009D000629FF001729FBB27F00DB11D639FAA2794
:1009E000F00DB11DAA1F649F6627B00DA11D661FE3
:1009F000829F2227B00DA11D621F739FB00DA11D04
:100A0000621F839FA00D611D221F749F3327A00DBD
:100A1000611D231F849F600D211D822F762F6A2F59
:100A200011249F5750409AF0F1F088234AF0EE0FBE
:100A3000FF1FBB1F661F771F881F91505040A9F7EB
:100A40009E3F510580F00C947C040C94C7045F3FDA
:100A5000E4F3983ED4F3869577956795B795F79527
:100A6000E7959F5FC1F7FE2B880F911D969587959F
:080A700097F90895F894FFCFF7
:020A7800FF007D
:00000001FF
