:100000000C9434000C9451000C9451000C94510049
:100010000C9451000C9451000C9451000C9451001C
:100020000C9451000C9451000C9451000C946001FC
:100030000C9451000C9451000C9451000C945100FC
:100040000C9451000C9451000C9451000C945100EC
:100050000C9451000C9451000C9451000C945100DC
:100060000C9451000C94510011241FBECFEFD8E026
:10007000DEBFCDBF11E0A0E0B1E0E0E6F9E002C0F4
:1000800005900D92A230B107D9F721E0A2E0B1E0CE
:1000900001C01D92A930B207E1F70E946C020C94D6
:1000A000AE040C9400009C015A9A9AE05B9831FFD0
:1000B00002C05C9A01C05C985B9A220F331F91507A
:1000C000A9F75B985C98089598E05B98882314F4EE
:1000D0005C9A01C05C985B9A880F9150B1F75B986D
:1000E0005C98089527E030E080E061E070E05B9884
:1000F0005B9A4D9B08C0AB01022E02C0440F551FF6
:100100000A94E2F7842B2150310988F75B985A98BA
:100110000895CF93C82F8F7790E097600E94530087
:100120008C2F0E947200CF910895CF93C62F90E03C
:10013000806892600E9453008C2F0E9464005A983D
:100140005A9A89B18823E9F35A98CF91089580E6A5
:1001500092E00E9453005A98089580E092E00E9435
:1001600053005A980895109280008DE0809381008A
:10017000EFE6F0E080818260808383E193E19093F9
:10018000890080938800089584E08093BC001092D9
:10019000B9008CE08093B800089584EE8093BC0091
:1001A000ECEBF0E080818823ECF78091B9000895B2
:1001B00084EE8093BC00ECEBF0E080818823ECF7C8
:1001C0008091B9000895880F8093BB0084E88093E4
:1001D000BC00ECEBF0E080818823ECF78091B90063
:1001E000887F883161F46093BB0084E88093BC0011
:1001F000ECEBF0E080818823ECF78091B900089562
:10020000880F81608093BB0084E88093BC00ECEB96
:10021000F0E080818823ECF78091B900887F8034FA
:1002200099F420E4629FC001112484688093BC008B
:10023000ECEBF0E080818823ECF7613019F48091D9
:10024000B90002C08091B9008091BB0090E0089590
:100250008093BB0084E88093BC00ECEBF0E08081ED
:100260008823ECF78091B90008950E94CD006CEAD4
:1002700088E40E94E30083E00E94280184E98093DF
:10028000BC000895CF930E94CD006EEE88E40E94DA
:10029000E3000E94D8006AEA88E40E94E3000E941A
:1002A000D80060E088E40E940001C82F60E088E484
:1002B0000E94000184E98093BC008C2FCF910895A7
:1002C0001F920F920FB60F9211248F929F92AF92AE
:1002D000BF92CF92DF92EF92FF921F932F933F93A3
:1002E0004F935F936F937F938F939F93AF93BF933E
:1002F000CF93DF93EF93FF9381E0809307019BB14E
:1003000080E489278BB90E944201C82F83E60E94AE
:100310008900D82F10910801682F70E080E090E0EC
:100320000E94B30320E030E048EC52E40E94410414
:100330006B017C01612F70E080E090E00E94B303CC
:100340009B01AC01C701B6010E94A6026B017C01B2
:10035000D11111C011110FC06C2F70E080E090E03E
:100360000E94B30360930201709303018093040120
:100370009093050132C02091020130910301409118
:10038000040150910501C701B6010E9441044B01CF
:100390005C016C2F70E080E090E00E94B3039B0151
:1003A000AC01C501B4010E94A6024B015C0120E032
:1003B00030E040E85FE3C701B6010E94A6029B015E
:1003C000AC01C501B4010E94120360930201709355
:1003D00003018093040190930501809002019090A5
:1003E0000301A0900401B0900501C501B4010E9471
:1003F0008403162F70E080E090E00E94B3039B011D
:10040000AC01C501B4010E94A50220E030E048EC37
:1004100052E40E9441040E948403B62E0E94A70069
:10042000809106018C1768F46C2F84E60E94950079
:10043000C701B6010E94840385E60E949500C0931F
:10044000060180910001C81768F46C2F86E60E94AF
:100450009500C701B6010E94840387E60E949500BB
:10046000C0930001612F88E60E9495006B2D89E6FC
:100470000E9495006C2F809108010E949500809148
:1004800008018F5F833618F48093080107C010922B
:10049000080161E06D0F83E60E9495000E94AD00A7
:1004A000FF91EF91DF91CF91BF91AF919F918F918C
:1004B0007F916F915F914F913F912F911F91FF908D
:1004C000EF90DF90CF90BF90AF909F908F900F9064
:1004D0000FBE0F901F9018950E94C4000E94350116
:1004E0008AB18C618AB955985B98569A78940E9423
:1004F000B3000E94A70060E083E60E94950060E0E0
:1005000084E60E94950060E085E60E94950060E028
:1005100086E60E94950060E087E60E94950060E014
:1005200088E60E94950060E089E60E94950060E000
:100530008AE60E9495000E94AD008091070190E03C
:1005400001C0892F8130F1F7FCCF5058BB27AA2773
:100550000E94BD020C9407040E94F90338F00E9427
:10056000000420F039F49F3F19F426F40C94F603AC
:100570000EF4E095E7FB0C94F003E92F0E941804B9
:1005800058F3BA17620773078407950720F079F4C8
:10059000A6F50C943A040EF4E0950B2EBA2FA02D7C
:1005A0000B01B90190010C01CA01A0011124FF2720
:1005B000591B99F0593F50F4503E68F11A16F0401B
:1005C000A22F232F342F4427585FF3CF469537951A
:1005D0002795A795F0405395C9F77EF41F16BA0BDF
:1005E000620B730B840BBAF09150A1F0FF0FBB1F8D
:1005F000661F771F881FC2F70EC0BA0F621F731FD6
:10060000841F48F4879577956795B795F7959E3F32
:1006100008F0B0CF9395880F08F09927EE0F9795C3
:10062000879508950E9426030C9407040E940004F5
:1006300058F00E94F90340F029F45F3F29F00C9430
:10064000F00351110C943B040C94F6030E9418041F
:1006500068F39923B1F3552391F3951B550BBB27F1
:10066000AA2762177307840738F09F5F5F4F220F36
:10067000331F441FAA1FA9F335D00E2E3AF0E0E82D
:1006800032D091505040E695001CCAF72BD0FE2F77
:1006900029D0660F771F881FBB1F2617370748070B
:1006A000AB07B0E809F0BB0B802DBF01FF279358C3
:1006B0005F4F3AF09E3F510578F00C94F0030C9494
:1006C0003B045F3FE4F3983ED4F3869577956795B6
:1006D000B795F7959F5FC9F7880F911D96958795F8
:1006E00097F90895E1E0660F771F881FBB1F621717
:1006F00073078407BA0720F0621B730B840BBA0BD5
:10070000EE1F88F7E09508950E94200488F09F5717
:1007100098F0B92F9927B751B0F0E1F0660F771F25
:10072000881F991F1AF0BA95C9F714C0B13091F01B
:100730000E943A04B1E008950C943A04672F782F90
:100740008827B85F39F0B93FCCF3869577956795E0
:10075000B395D9F73EF490958095709561957F4F4C
:100760008F4F9F4F0895E89409C097FB3EF49095F2
:100770008095709561957F4F8F4F9F4F9923A9F07A
:10078000F92F96E9BB279395F69587957795679509
:10079000B795F111F8CFFAF4BB0F11F460FF1BC04D
:1007A0006F5F7F4F8F4F9F4F16C0882311F096E9E0
:1007B00011C0772321F09EE8872F762F05C066238E
:1007C00071F096E8862F70E060E02AF09A95660F47
:1007D000771F881FDAF7880F9695879597F9089500
:1007E00097F99F6780E870E060E008959FEF80ECE4
:1007F000089500240A941616170618060906089587
:1008000000240A9412161306140605060895092EEC
:100810000394000C11F4882352F0BB0F40F4BF2B5B
:1008200011F460FF04C06F5F7F4F8F4F9F4F08959B
:1008300057FD9058440F551F59F05F3F71F0479591
:10084000880F97FB991F61F09F3F79F08795089576
:10085000121613061406551FF2CF4695F1DF08C095
:10086000161617061806991FF1CF869571056105B2
:1008700008940895E894BB2766277727CB0197F95A
:1008800008950E9454040C9407040E94F90338F060
:100890000E94000420F0952311F00C94F0030C94B6
:1008A000F60311240C943B040E94180470F3959FE6
:1008B000C1F3950F50E0551F629FF001729FBB2757
:1008C000F00DB11D639FAA27F00DB11DAA1F649FF3
:1008D0006627B00DA11D661F829F2227B00DA11DA6
:1008E000621F739FB00DA11D621F839FA00D611D2C
:1008F000221F749F3327A00D611D231F849F600D4D
:10090000211D822F762F6A2F11249F5750409AF075
:10091000F1F088234AF0EE0FFF1FBB1F661F771F01
:10092000881F91505040A9F79E3F510580F00C94CC
:10093000F0030C943B045F3FE4F3983ED4F38695B8
:1009400077956795B795F795E7959F5FC1F7FE2B6C
:10095000880F911D9695879597F90895F894FFCF84
:02096000FF0096
:00000001FF
