S00F00006D656D54656D702E7372656340
S11300000C9434000C945E030C9451000C94510035
S11300100C9451000C9451000C9451000C94510018
S11300200C9451000C9451000C9451000C94560201
S11300300C9451000C9451000C9451000C945100F8
S11300400C9451000C9451000C9451000C945100E8
S11300500C9451000C9451000C9451000C945100D8
S11300600C947E000C94510011241FBECFEFD8E0F5
S1130070DEBFCDBF11E0A0E0B1E0E6E8FBE002C0E6
S113008005900D92A430B107D9F721E0A4E0B1E0C6
S113009001C01D92AB37B207E1F70E9499030C949B
S11300A0C1050C94000016161706A4F44091000133
S11300B0FC01680F791F80E0219198E0382F3227E6
S11300C0869530FD842726959150C1F7E617F707EA
S11300D099F7089580E008959093070180930601AD
S11300E070930501609304010895F894880F809338
S11300F0BA0085EC8093BC00789408951F920F9207
S11301000FB60F9211242F933F934F935F936F93E6
S11301107F938F939F93AF93BF93EF93FF938091BC
S1130120B900887F803849F018F4882319F128C071
S1130130883A71F0883BA9F023C08091BB00E0911C
S11301400601F0910701099585EC8093BC001BC062
S1130150E0910401F0910501099585EC8093BC00C0
S113016012C0E0910401F0910501099585EC80939A
S1130170BC0009C0ECEBF0E0108285EC808303C086
S113018085EC8093BC00FF91EF91BF91AF919F915B
S11301908F917F916F915F914F913F912F910F902C
S11301A00FBE0F901F90189580937301089581E0FE
S11301B0809369008DBB08959C015E9A9AE05B98D8
S11301C031FF02C05C9A01C05C985B9A8BB1220F2C
S11301D0331F9150A1F75B985C98089598E05B9861
S11301E0882314F45C9A01C05C985B9A2BB1880F45
S11301F09150A9F75B985C98089527E030E080E07F
S113020061E070E05B985B9A9BB14D9B08C0AB01C9
S1130210022E02C0440F551F0A94E2F7842B21508A
S1130220310980F75B985E980895CF93C82F8F7734
S113023090E097600E94DC008C2F0E94FD00CF911B
S11302400895CF93809173018C3139F5C0910201E7
S1130250C730B8F483E68C0F0E941501EC2FF0E050
S1130260EC58FE4F8083E0910201F0E0EC58FE4F21
S113027080818093BB00809102018F5F8093020193
S113028034C066E070E085E791E00E9453008093FB
S1130290BB0081E08093020128C0809173018B31FF
S11302A021F5C0910F01C336B0F48C2F0E941501C3
S11302B0EC2FF0E0E05FFE4F8083E0910F01F0E06F
S11302C0E05FFE4F80818093BB0080910F018F5FC0
S11302D080930F010AC063E670E080E191E00E9420
S11302E053008093BB0010920F01CF910895CF93D8
S11302F0C62F90E0806892600E94DC008C2F0E94E0
S1130300EE005E985E9A4D9BFECF5E98CF91089565
S113031080E692E00E94DC005E98089580E092E01E
S11303200E94DC005E980895CF93C82F80E292E08B
S11303300E94DC008C2F0E94EE005E985E9A4D9B1A
S1130340FECF5E98CF910895109280008DE0809347
S11303508100EFE6F0E080818260808383E193E1B5
S113036090938900809388000895ECEBF0E08081FD
S11303708E7B80838081846080831092B9008CE0BE
S11303808093B800089584EE8093BC00ECEBF0E019
S113039080818823ECF78091B900089584EE8093DE
S11303A0BC00ECEBF0E080818823ECF78091B9008D
S11303B00895880F8093BB0084E88093BC00ECEB25
S11303C0F0E080818823ECF78091B900887F883140
S11303D061F46093BB0084E88093BC00ECEBF0E034
S11303E080818823ECF78091B9000895880F81609B
S11303F08093BB0084E88093BC00ECEBF0E0808148
S11304008823ECF78091B900887F803499F420E444
S1130410629FC001112484688093BC00ECEBF0E07F
S113042080818823ECF7613019F48091B90002C00F
S11304308091B9008091BB0090E008958093BB0047
S113044084E88093BC00ECEBF0E080818823ECF737
S11304508091B90008950E94C3016CEA88E40E9467
S1130460D90183E00E941E0284E98093BC000895B0
S1130470CF930E94C3016EEE88E40E94D9010E94CA
S1130480CE016AEA88E40E94D9010E94CE0160E0AC
S113049088E40E94F601C82F60E088E40E94F60117
S11304A084E98093BC008C2FCF9108951F920F9202
S11304B00FB60F9211248F929F92AF92BF92CF9258
S11304C0DF92EF92FF921F932F933F934F935F938B
S11304D06F937F938F939F93AF93BF93CF93DF9348
S11304E0EF93FF9381E080930D010E943802C82F9F
S11304F083E60E941501D82F10910E01682F70E039
S113050080E090E00E94C60420E030E048EC52E431
S11305100E9454056B017C01612F70E080E090E043
S11305200E94C6049B01AC01C701B6010E94B90335
S11305306B017C01D11111C011110FC06C2F70E03F
S113054080E090E00E94C604609308017093090162
S113055080930A0190930B0132C0209108013091DD
S1130560090140910A0150910B01C701B6010E9493
S113057054054B015C016C2F70E080E090E00E9418
S1130580C6049B01AC01C501B4010E94B9034B012F
S11305905C0120E030E040E85FE3C701B6010E945F
S11305A0B9039B01AC01C501B4010E942504609309
S11305B008017093090180930A0190930B018090C4
S11305C0080190900901A0900A01B0900B01C501A7
S11305D0B4010E949704162F70E080E090E00E941E
S11305E0C6049B01AC01C501B4010E94B80320E01C
S11305F030E048EC52E40E9454050E949704B62E61
S11306000E94880180910C018C1768F46C2F84E699
S11306100E947701C701B6010E94970485E60E94F3
S11306207701C0930C0180910101C81768F46C2F05
S113063086E60E947701C701B6010E94970487E607
S11306400E947701C0930101612F88E60E9477011F
S11306506B2D89E60E9477016C2F80910E010E9418
S1130660770180910E018F5F833618F480930E0119
S113067007C010920E0161E06D0F83E60E947701BE
S11306800E948E01FF91EF91DF91CF91BF91AF91C5
S11306909F918F917F916F915F914F913F912F9196
S11306A01F91FF90EF90DF90CF90BF90AF909F90FD
S11306B08F900F900FBE0F901F9018951F920F925E
S11306C00FB60F9211242F933F934F935F936F9321
S11306D07F938F939F93AF93BF93EF93FF934A9B23
S11306E010C05F9A61E271E084ED90E00E946C00BA
S11306F080E20E947500EFE6F0E080818D7F8083C8
S113070007C00E94B501EFE6F0E08081826080833B
S1130710FF91EF91BF91AF919F918F917F916F91D5
S11307205F914F913F912F910F900FBE0F901F90AB
S113073018950E94B5010E942B020E94D7008AB12D
S113074088658AB95598579A5B98569A78940E9406
S1130750A4010E94880180E00E9494010E948E01FD
S113076080910D0190E001C0892F8130F1F7FCCF19
S11307705058BB27AA270E94D0030C941A050E9444
S11307800C0538F00E94130520F039F49F3F19F44A
S113079026F40C9409050EF4E095E7FB0C9403058C
S11307A0E92F0E942B0558F3BA17620773078407D1
S11307B0950720F079F4A6F50C944D050EF4E09518
S11307C00B2EBA2FA02D0B01B90190010C01CA0107
S11307D0A0011124FF27591B99F0593F50F4503EB2
S11307E068F11A16F040A22F232F342F4427585FA4
S11307F0F3CF469537952795A795F0405395C9F7BC
S11308007EF41F16BA0B620B730B840BBAF0915073
S1130810A1F0FF0FBB1F661F771F881FC2F70EC012
S1130820BA0F621F731F841F48F4879577956795E5
S1130830B795F7959E3F08F0B0CF9395880F08F0D1
S11308409927EE0F9795879508950E9439040C9483
S11308501A050E94130558F00E940C0540F029F473
S11308605F3F29F00C94030551110C944E050C9430
S113087009050E942B0568F39923B1F3552391F3DD
S1130880951B550BBB27AA2762177307840738F0FB
S11308909F5F5F4F220F331F441FAA1FA9F335D058
S11308A00E2E3AF0E0E832D091505040E695001C0C
S11308B0CAF72BD0FE2F29D0660F771F881FBB1FC6
S11308C0261737074807AB07B0E809F0BB0B802DA4
S11308D0BF01FF2793585F4F3AF09E3F510578F0D0
S11308E00C9403050C944E055F3FE4F3983ED4F357
S11308F0869577956795B795F7959F5FC9F7880FA4
S1130900911D9695879597F90895E1E0660F771FF5
S1130910881FBB1F621773078407BA0720F0621B86
S1130920730B840BBA0BEE1F88F7E09508950E94B1
S1130930330588F09F5798F0B92F9927B751B0F035
S1130940E1F0660F771F881F991F1AF0BA95C9F74F
S113095014C0B13091F00E944D05B1E008950C949B
S11309604D05672F782F8827B85F39F0B93FCCF34E
S1130970869577956795B395D9F73EF490958095CC
S1130980709561957F4F8F4F9F4F0895E89409C0EC
S113099097FB3EF490958095709561957F4F8F4FAE
S11309A09F4F9923A9F0F92F96E9BB279395F695C4
S11309B0879577956795B795F111F8CFFAF4BB0F42
S11309C011F460FF1BC06F5F7F4F8F4F9F4F16C0A6
S11309D0882311F096E911C0772321F09EE8872F30
S11309E0762F05C0662371F096E8862F70E060E0EC
S11309F02AF09A95660F771F881FDAF7880F969565
S1130A00879597F9089597F99F6780E870E060E00B
S1130A1008959FEF80EC089500240A941616170693
S1130A2018060906089500240A94121613061406DB
S1130A3005060895092E0394000C11F4882352F03E
S1130A40BB0F40F4BF2B11F460FF04C06F5F7F4FF6
S1130A508F4F9F4F089557FD9058440F551F59F0DD
S1130A605F3F71F04795880F97FB991F61F09F3F97
S1130A7079F087950895121613061406551FF2CFC0
S1130A804695F1DF08C0161617061806991FF1CF10
S1130A9086957105610508940895E894BB27662737
S1130AA07727CB0197F908950E9467050C941A05DE
S1130AB00E940C0538F00E94130520F0952311F0D4
S1130AC00C9403050C94090511240C944E050E9402
S1130AD02B0570F3959FC1F3950F50E0551F629F4E
S1130AE0F001729FBB27F00DB11D639FAA27F00D83
S1130AF0B11DAA1F649F6627B00DA11D661F829FAA
S1130B002227B00DA11D621F739FB00DA11D621F8E
S1130B10839FA00D611D221F749F3327A00D611DAB
S1130B20231F849F600D211D822F762F6A2F11248D
S1130B309F5750409AF0F1F088234AF0EE0FFF1FC0
S1130B40BB1F661F771F881F91505040A9F79E3F17
S1130B50510580F00C9403050C944E055F3FE4F3BB
S1130B60983ED4F3869577956795B795F795E7956D
S1130B709F5FC1F7FE2B880F911D9695879597F976
S1090B800895F894FFCF74
S1070B868CFF0100DB
S9030000FC
