:100000000C9434000C94D7010C9451000C945100C2
:100010000C9451000C9451000C9451000C9451001C
:100020000C9451000C9451000C9451000C94C80194
:100030000C9451000C9451000C9451000C945100FC
:100040000C9451000C9451000C9451000C945100EC
:100050000C9451000C9451000C9451000C945100DC
:100060000C945C010C94510011241FBECFEFD8E01A
:10007000DEBFCDBF11E0A0E0B1E0E6EFF9E002C0E5
:1000800005900D92A230B107D9F721E0A2E0B1E0CE
:1000900001C01D92AD30B207E1F70E9401020C943D
:1000A000F9040C9400000E94F0006CEA88E40E94BD
:1000B0000A0183E00E944F010E9406010895CF9338
:1000C0000E94F0006EEE88E40E940A010E94FB008C
:1000D0006AEA88E40E940A010E94FB0060E088E46A
:1000E0000E942701C82F60E088E40E9427010E9437
:1000F00006018C2FCF9108959C015E9A9AE05B983F
:1001000031FF02C05C9A01C05C985B9A220F331FDA
:100110009150A9F75B985C98089598E05B988823C4
:1001200014F45C9A01C05C985B9A880F9150B1F707
:100130005B985C98089527E030E080E061E070E033
:100140005B985B9A4D9B08C0AB01022E02C0440F26
:10015000551F0A94E2F7842B2150310988F75B98E8
:100160005E980895CF93C82F8F7790E097600E9494
:100170007C008C2F0E949B00CF910895CF93C62FB7
:1001800090E0806892600E947C008C2F0E948D001D
:100190005E985E9A89B18823E9F35E98CF910895BD
:1001A00080E692E00E947C005E98089580E092E0F4
:1001B0000E947C005E98089580E492E00E947C009A
:1001C0005E980895ECEBF0E080818E7B80838081E7
:1001D000846080831092B9008CE08093B800089509
:1001E00084EE8093BC00ECEBF0E080818823ECF798
:1001F0008091B900089584EE8093BC00ECEBF0E0B0
:1002000080818823ECF78091B900089584E9809378
:10021000BC000895880F8093BB0084E88093BC00E5
:10022000ECEBF0E080818823ECF78091B900887FC7
:10023000883161F46093BB0084E88093BC00ECEBF0
:10024000F0E080818823ECF78091B9000895880F51
:1002500081608093BB0084E88093BC00ECEBF0E00D
:1002600080818823ECF78091B900887F803499F4ED
:1002700020E4629FC001112484688093BC00ECEBF1
:10028000F0E080818823ECF7613019F48091B900A7
:1002900002C08091B9008091BB0090E008958093E6
:1002A000BB0084E88093BC00ECEBF0E08081882305
:1002B000ECF78091B90008951F920F920FB60F923C
:1002C00011242F933F934F935F936F937F938F935B
:1002D0009F93AF93BF93EF93FF938091B900887F73
:1002E000803849F018F4882319F128C0883A71F051
:1002F000883BA9F023C08091BB00E0910401F091FC
:100300000501099585EC8093BC001BC0E0910201BA
:10031000F0910301099585EC8093BC0012C0E09137
:100320000201F0910301099585EC8093BC0009C09E
:10033000ECEBF0E0108285EC808303C085EC8093C9
:10034000BC00FF91EF91BF91AF919F918F917F91F1
:100350006F915F914F913F912F910F900FBE0F9032
:100360001F90189581E0809369008DBB08951092CD
:1003700080008DE080938100EFE6F0E08081826074
:10038000808383E193E190938900809388000895AE
:100390001F920F920FB60F9211248F9381E08093DA
:1003A00006018F910F900FBE0F901F9018951F920E
:1003B0000F920FB60F9211242F933F934F935F9399
:1003C0006F937F938F939F93AF93BF93EF93FF931D
:1003D00089B10E94E200EFE6F0E0808182608083D4
:1003E000FF91EF91BF91AF919F918F917F916F910D
:1003F0005F914F913F912F910F900FBE0F901F90E3
:1004000018950E94E2000E9453008AB188658AB95B
:100410008AB18B7D8AB95B980E94B201569A789412
:100420000E94B7010E94D0000E94DC000E94D6000A
:1004300000E4809106018823F1F38BB180278BB90A
:100440000E945F00C82F83E60E94B200D82F10914F
:100450000C01682F70E080E090E00E94FE0320E035
:1004600030E048EC52E40E948C046B017C01612F67
:1004700070E080E090E00E94FE039B01AC01C701A8
:10048000B6010E94F1026B017C01D11111C0111162
:100490000FC06C2F70E080E090E00E94FE0360933C
:1004A0000701709308018093090190930A0132C0FB
:1004B00020910701309108014091090150910A01F2
:1004C000C701B6010E948C044B015C016C2F70E0E7
:1004D00080E090E00E94FE039B01AC01C501B401E5
:1004E0000E94F1024B015C0120E030E040E85FE354
:1004F000C701B6010E94F1029B01AC01C501B40124
:100500000E945D03609307017093080180930901C5
:1005100090930A018090070190900801A090090132
:10052000B0900A01C501B4010E94CF03162F70E0FC
:1005300080E090E00E94FE039B01AC01C501B40184
:100540000E94F00220E030E048EC52E40E948C046B
:100550000E94CF03B62E0E94D00080910B018C1711
:1005600068F46C2F84E60E94BE00C701B6010E94A9
:10057000CF0385E60E94BE00C0930B01809100016D
:10058000C81768F46C2F86E60E94BE00C701B6014A
:100590000E94CF0387E60E94BE00C0930001612F36
:1005A00088E60E94BE006B2D89E60E94BE006C2F7B
:1005B00080910C010E94BE0080910C018F5F8336F8
:1005C00018F480930C0107C010920C0161E06D0FCC
:1005D00083E60E94BE000E94D6001092060129CF39
:1005E0005058BB27AA270E9408030C9452040E946B
:1005F000440438F00E944B0420F039F49F3F19F472
:1006000026F40C9441040EF4E095E7FB0C943B04B3
:10061000E92F0E94630458F3BA176207730784072F
:10062000950720F079F4A6F50C9485040EF4E09576
:100630000B2EBA2FA02D0B01B90190010C01CA019C
:10064000A0011124FF27591B99F0593F50F4503E47
:1006500068F11A16F040A22F232F342F4427585F39
:10066000F3CF469537952795A795F0405395C9F751
:100670007EF41F16BA0B620B730B840BBAF0915009
:10068000A1F0FF0FBB1F661F771F881FC2F70EC0A8
:10069000BA0F621F731F841F48F48795779567957B
:1006A000B795F7959E3F08F0B0CF9395880F08F067
:1006B0009927EE0F9795879508950E9471030C94E2
:1006C00052040E944B0458F00E94440440F029F464
:1006D0005F3F29F00C943B0451110C9486040C9458
:1006E00041040E94630468F39923B1F3552391F305
:1006F000951B550BBB27AA2762177307840738F091
:100700009F5F5F4F220F331F441FAA1FA9F335D0ED
:100710000E2E3AF0E0E832D091505040E695001CA1
:10072000CAF72BD0FE2F29D0660F771F881FBB1F5B
:10073000261737074807AB07B0E809F0BB0B802D39
:10074000BF01FF2793585F4F3AF09E3F510578F065
:100750000C943B040C9486045F3FE4F3983ED4F37E
:10076000869577956795B795F7959F5FC9F7880F39
:10077000911D9695879597F90895E1E0660F771F8B
:10078000881FBB1F621773078407BA0720F0621B1C
:10079000730B840BBA0BEE1F88F7E09508950E9447
:1007A0006B0488F09F5798F0B92F9927B751B0F094
:1007B000E1F0660F771F881F991F1AF0BA95C9F7E5
:1007C00014C0B13091F00E948504B1E008950C94FA
:1007D0008504672F782F8827B85F39F0B93FCCF3AD
:1007E000869577956795B395D9F73EF49095809562
:1007F000709561957F4F8F4F9F4F0895E89409C082
:1008000097FB3EF490958095709561957F4F8F4F43
:100810009F4F9923A9F0F92F96E9BB279395F69559
:10082000879577956795B795F111F8CFFAF4BB0FD7
:1008300011F460FF1BC06F5F7F4F8F4F9F4F16C03B
:10084000882311F096E911C0772321F09EE8872FC5
:10085000762F05C0662371F096E8862F70E060E081
:100860002AF09A95660F771F881FDAF7880F9695FA
:10087000879597F9089597F99F6780E870E060E0A1
:1008800008959FEF80EC089500240A941616170629
:1008900018060906089500240A9412161306140671
:1008A00005060895092E0394000C11F4882352F0D4
:1008B000BB0F40F4BF2B11F460FF04C06F5F7F4F8C
:1008C0008F4F9F4F089557FD9058440F551F59F073
:1008D0005F3F71F04795880F97FB991F61F09F3F2D
:1008E00079F087950895121613061406551FF2CF56
:1008F0004695F1DF08C0161617061806991FF1CFA6
:1009000086957105610508940895E894BB276627CC
:100910007727CB0197F908950E949F040C94520405
:100920000E94440438F00E944B0420F0952311F0FB
:100930000C943B040C94410411240C9486040E94F2
:10094000630470F3959FC1F3950F50E0551F629FAC
:10095000F001729FBB27F00DB11D639FAA27F00D18
:10096000B11DAA1F649F6627B00DA11D661F829F3F
:100970002227B00DA11D621F739FB00DA11D621F24
:10098000839FA00D611D221F749F3327A00D611D41
:10099000231F849F600D211D822F762F6A2F112423
:1009A0009F5750409AF0F1F088234AF0EE0FFF1F56
:1009B000BB1F661F771F881F91505040A9F79E3FAD
:1009C000510580F00C943B040C9486045F3FE4F3E3
:1009D000983ED4F3869577956795B795F795E79503
:1009E0009F5FC1F7FE2B880F911D9695879597F90C
:0609F0000895F894FFCF0A
:0209F600FF0000
:00000001FF
