:100000000C9434000C9451000C9451000C94510049
:100010000C9451000C9451000C9451000C9451001C
:100020000C9451000C9451000C9451000C946001FC
:100030000C9451000C9451000C9451000C945100FC
:100040000C9451000C9451000C9451000C945100EC
:100050000C9451000C9451000C9451000C945100DC
:100060000C9451000C94510011241FBECFEFD8E026
:10007000DEBFCDBF11E0A0E0B1E0E0E6F4E002C0F9
:1000800005900D92A230B107D9F721E0A2E0B1E0CE
:1000900001C01D92A430B207E1F70E940D020C943A
:1000A0002E020C9400009C015A9A9AE05B9831FF52
:1000B00002C05C9A01C05C985B9A220F331F91507A
:1000C000A9F75B985C98089598E05B98882314F4EE
:1000D0005C9A01C05C985B9A880F9150B1F75B986D
:1000E0005C98089527E030E080E061E070E05B9884
:1000F0005B9A4D9B08C0AB01022E02C0440F551FF6
:100100000A94E2F7842B2150310988F75B985A98BA
:100110000895CF93C82F8F7790E097600E94530087
:100120008C2F0E947200CF910895CF93C62F90E03C
:10013000806892600E9453008C2F0E9464005A983D
:100140005A9A89B18823E9F35A98CF91089580E6A5
:1001500092E00E9453005A98089580E092E00E9435
:1001600053005A980895109280008DE0809381008A
:10017000EFE6F0E080818260808383E193E19093F9
:10018000890080938800089584E08093BC001092D9
:10019000B9008CE08093B800089584EE8093BC0091
:1001A000ECEBF0E080818823ECF78091B9000895B2
:1001B00084EE8093BC00ECEBF0E080818823ECF7C8
:1001C0008091B9000895880F8093BB0084E88093E4
:1001D000BC00ECEBF0E080818823ECF78091B90063
:1001E000887F883161F46093BB0084E88093BC0011
:1001F000ECEBF0E080818823ECF78091B900089562
:10020000880F81608093BB0084E88093BC00ECEB96
:10021000F0E080818823ECF78091B900887F8034FA
:1002200099F420E4629FC001112484688093BC008B
:10023000ECEBF0E080818823ECF7613019F48091D9
:10024000B90002C08091B9008091BB0090E0089590
:100250008093BB0084E88093BC00ECEBF0E08081ED
:100260008823ECF78091B90008950E94CD006CEAD4
:1002700088E40E94E30083E00E94280184E98093DF
:10028000BC000895CF930E94CD006EEE88E40E94DA
:10029000E3000E94D8006AEA88E40E94E3000E941A
:1002A000D80060E088E40E940001C82F60E088E484
:1002B0000E94000184E98093BC008C2FCF910895A7
:1002C0001F920F920FB60F9211242F933F934F93CB
:1002D0005F936F937F938F939F93AF93BF93CF93CE
:1002E000DF93EF93FF939BB180E489278BB90E9442
:1002F0004201C82F0E94A700809102018C17A0F430
:1003000084E60E948900D82F6C2F85E60E94950014
:100310008091030161E06D0F689F600D112486E6F6
:100320000E949500C093020180910001C817A0F4BB
:1003300084E60E948900D82F6C2F87E60E949500E2
:100340008091030161E06D0F689F600D112488E6C4
:100350000E949500C09300016C2F809103010E94C0
:100360009500809103018F5F843618F48093030118
:100370000AC01092030184E60E94890061E0680FC0
:1003800084E60E9495000E94AD00FF91EF91DF91FD
:10039000CF91BF91AF919F918F917F916F915F911D
:1003A0004F913F912F910F900FBE0F901F90189576
:1003B000CF93DF9384E60E948900C82F811105C086
:1003C0008091030181111AC025C0C09103018C2FB7
:1003D00090E0019684369105D4F4CF5F19C08C2F3C
:1003E0000E9489008C2F90E001968436910514F4C8
:1003F000CF5F01C0C0E0D15091F70CC08C2F0E949C
:100400008900CF5F80910301C817C0F303C0C0E02B
:10041000D4E6E5CFDF91CF9108950E94C4000E94F9
:1004200035018AB18C618AB955985B98569A78944F
:100430000E94B3000E94A70060E084E60E9495003D
:100440000E94AD002FEF8AE197EB21508040904051
:10045000E1F700C000000E94D801F4CFF894FFCF6C
:02046000FF009B
:00000001FF
