S00D000074696D65722E73726563F6
S11300000C9434000C943E000C943E000C943E007E
S11300100C943E000C943E000C943E000C943E0064
S11300200C943E000C943E000C943E000C94510041
S11300300C943E000C943E000C943E000C943E0044
S11300400C943E000C943E000C943E000C943E0034
S11300500C943E000C943E000C943E000C943E0024
S11300600C943E000C943E0011241FBECFEFD8E048
S1130070DEBFCDBF0E9463000C947B000C94000093
S1130080109280008DE080938100EFE6F0E08081A3
S11300908260808383E193E1909389008093880058
S11300A008951F920F920FB60F9211248F939F936E
S11300B09BB180E489278BB99F918F910F900FBEDC
S11300C00F901F9018958FEF8AB95098559878948F
S11300D00E9440009BB180E489278BB98BB1805882
S11300E08BB92FE38DE093E0215080409040E1F7FD
S10D00F000C00000F3CFF894FFCF26
S9030000FC
