:100000000C943D000C94F7000C94F7000C94F7004E
:100010000C94F7000C94F7000C94F7000C94F70084
:100020000C94F7000C94F7000C94F7000C94F70074
:100030000C94F7000C94F7000C94F7000C94F70064
:100040000C94F7000C94F7000C94F7000C94F70054
:100050000C94F7000C94F7000C94F7000C94F70044
:100060000C9467000C94F70001000102800102016A
:10007000050001F20105010A800011241FBECFEF27
:10008000D8E0DEBFCDBFE8E6F0E040E017C0B591B4
:10009000A59135912591059107FD0CC0959185910C
:1000A000EF01F92FE82F05900D92A217B307D9F7AA
:1000B000FE0104C01D92A217B307E1F7E937F40768
:0E00C00031F70E94F4000C946500F894FFCF15
:1000CE001F920F920FB60F9211242F933F934F93BF
:1000DE005F936F937F938F939F93AF93BF93EF93A2
:1000EE00FF938091B900887F803849F018F48823F7
:1000FE0019F128C0883A71F0883BA9F023C080918D
:10010E00BB00E0910701F0910801099585EC809301
:10011E00BC001BC0E0910501F0910601099585EC2C
:10012E008093BC0012C0E0910501F0910601099583
:10013E0085EC8093BC0009C0ECEBF0E0108285ECFE
:10014E00808303C085EC8093BC00FF91EF91BF913B
:10015E00AF919F918F917F916F915F914F913F9151
:0C016E002F910F900FBE0F901F9018955E
:10017A00809100018C3199F480910901833011F446
:10018A0010920901E0910901F0E0EE5FFE4F8081D3
:10019A008093BB00809109018F5F809309010895C4
:1001AA006DEB70E081EF90E00E94DF0080E20E9438
:0401BA00E8000895BC
:1001BE0090930801809307017093060160930501E7
:0201CE00089592
:1001D000F894880F8093BA0085EC8093BC007894E3
:0201E000089580
:0601E20080930001089566
:0601E8000E94D500FFCFCC
:0401EE000C9400006D
:0301F2003040504A
:00000001FF
